:100000000C9446000C9465000C9465000C946500FB
:100010000C9465000C9465000C9465000C946500CC
:100020000C9465000C9465000C9465000C946500BC
:100030000C9465000C94B4000C9465000C9465005D
:100040000C9465000C9465000C9465000C9465009C
:100050000C9465000C9465000C9465000C9465008C
:100060000C9465000C9465000C9465000C9465007C
:100070000C9465000C9465000C9465000C9465006C
:100080000C9465000C9465000C94650011241FBE4F
:10009000CFEFD0E4DEBFCDBF11E0A0E0B1E0E8E7F4
:1000A000F7E000E00BBF02C007900D92A634B10745
:1000B000D9F721E0A6E4B1E001C01D92A335B20753
:1000C000E1F70E9408020C94BA030C940000CF934D
:1000D000C82F8A3019F48DE00E9467008091C0001B
:1000E00085FFFCCFC093C60080E090E0CF910895DB
:1000F00060930E0170930F01809310019093110192
:1001000060934601709347018093480190934901A1
:1001100008958BE0809381008DE790E090938900B3
:100120008093880082E080936F0010928500109287
:10013000840080910E0190910F01A0911001B09167
:1001400011018093460190934701A0934801B09319
:1001500049018FB780688FBF08951092810008957C
:1001600081E080934A0108951F920F920FB60F927B
:1001700011240BB60F922F933F934F935F936F937E
:100180007F938F939F93AF93BF93EF93FF93809150
:10019000460190914701A0914801B0914901019712
:1001A000A109B1098093460190934701A0934801AA
:1001B000B0934901892B8A2B8B2B91F40E94B000BC
:1001C00080910E0190910F01A0911001B091110149
:1001D0008093460190934701A0934801B093490151
:1001E000FF91EF91BF91AF919F918F917F916F910F
:1001F0005F914F913F912F910F900BBE0F900FBECB
:100200000F901F901895CF92DF92EF92FF926B01A3
:100210007C0160914B0170914C0180914D01909156
:100220004E01A70196010E942602882309F458C0B6
:1002300020E030E0A901C701B6010E942602811129
:1002400006C0E1E9F0E080818870808305C0E1E9C3
:10025000F0E080818360808328E539E344E75FE351
:10026000C701B6010E94260288233CF48FEF9FEF5E
:10027000909399008093980027C020E034E244EFE7
:1002800056E4C701B6010E94480318162CF41092D8
:1002900099001092980018C020E030E040E053E44C
:1002A000C701B6010E944D039B01AC0160E074E2FE
:1002B00084EF9AE40E942B020E949D026150710912
:1002C000709399006093980010929500109294009A
:1002D000C0924B01D0924C01E0924D01F0924E0140
:1002E000FF90EF90DF90CF90089580915001909112
:1002F00051018130910579F038F082309105F9F0A3
:1003000083309105C1F140C081E090E090935101AC
:10031000809350013DC000990BC082E090E0909323
:1003200051018093500110924F011092520130C040
:1003300081E090E0909351018093500129C0809119
:100340004F01853160F482E090E0909351018093F9
:100350005001809152018F5F8093520119C0009922
:1003600003C083E090E002C081E090E090935101EF
:10037000809350010DC0009B02C081E090E09093FB
:1003800051018093500104C010925101109250010C
:1003900080915001909151018230910551F083304C
:1003A000910501F1019711F580E090E00E940301B1
:1003B000089580914F018F5F80934F01E09152012A
:1003C000F0E0EE5EFE4FE081F0E0EE0FFF1FEE0F7B
:1003D000FF1FEA5DFE4F60817181828193810E94DF
:1003E0000301089580E090E00E940301089580E4F5
:1003F000809390008BE08093910060E070E0CB01EF
:100400000E940301089510929000109291000895A7
:1004100011B88FEF82B980E484B98FEB85B90E945F
:10042000F7016AEF70E080E090E00E9478000E949F
:10043000890010925101109250010E947501809123
:100440004A018823E1F310924A01F7CF0E94D302B8
:1004500008F481E008950E943F020C940E030E946C
:10046000070358F00E94000340F029F45F3F29F091
:100470000C94F70251110C9442030C94FD020E945B
:100480001F0368F39923B1F3552391F3951B550B83
:10049000BB27AA2762177307840738F09F5F5F4F57
:1004A000220F331F441FAA1FA9F335D00E2E3AF096
:1004B000E0E832D091505040E695001CCAF72BD0AE
:1004C000FE2F29D0660F771F881FBB1F26173707FF
:1004D0004807AB07B0E809F0BB0B802DBF01FF2731
:1004E00093585F4F3AF09E3F510578F00C94F70215
:1004F0000C9442035F3FE4F3983ED4F386957795DE
:100500006795B795F7959F5FC9F7880F911D9695E9
:10051000879597F90895E1E0660F771F881FBB1F45
:10052000621773078407BA0720F0621B730B840BF2
:10053000BA0BEE1F88F7E09508950E94A402689414
:10054000B1110C94420308950E94270388F09F572D
:1005500098F0B92F9927B751B0F0E1F0660F771FE7
:10056000881F991F1AF0BA95C9F714C0B13091F0DD
:100570000E944103B1E008950C944103672F782F46
:100580008827B85F39F0B93FCCF3869577956795A2
:10059000B395D9F73EF490958095709561957F4F0E
:1005A0008F4F9F4F0895990F0008550FAA0BE0E851
:1005B000FEEF16161706E807F907C0F01216130625
:1005C000E407F50798F0621B730B840B950B39F465
:1005D0000A2661F0232B242B252B21F408950A26CB
:1005E00009F4A140A6958FEF811D811D089597F90B
:1005F0009F6780E870E060E008959FEF80EC0895C9
:1006000000240A94161617061806090608950024F1
:100610000A9412161306140605060895092E03946B
:10062000000C11F4882352F0BB0F40F4BF2B11F4DF
:1006300060FF04C06F5F7F4F8F4F9F4F089557FD3E
:100640009058440F551F59F05F3F71F04795880F40
:1006500097FB991F61F09F3F79F0879508951216D7
:1006600013061406551FF2CF4695F1DF08C0161683
:1006700017061806991FF1CF869571056105089434
:100680000895E894BB2766277727CB0197F908954B
:100690000E94D30208F48FEF08950E9460030C9427
:1006A0000E030E94000338F00E94070320F09523F8
:1006B00011F00C94F7020C94FD0211240C944203E7
:1006C0000E941F0370F3959FC1F3950F50E0551FD3
:1006D000629FF001729FBB27F00DB11D639FAA2797
:1006E000F00DB11DAA1F649F6627B00DA11D661FE6
:1006F000829F2227B00DA11D621F739FB00DA11D07
:10070000621F839FA00D611D221F749F3327A00DC0
:10071000611D231F849F600D211D822F762F6A2F5C
:1007200011249F5750409AF0F1F088234AF0EE0FC1
:10073000FF1FBB1F661F771F881F91505040A9F7EE
:100740009E3F510580F00C94F7020C9442035F3FEA
:10075000E4F3983ED4F3869577956795B795F7952A
:10076000E7959F5FC1F7FE2B880F911D96958795A2
:0807700097F90895F894FFCFFA
:100778000000000200000000670000000000010007
:100788000000000104030202050703020202030637
:10079800060601000002A4D082437BD49243A4D071
:1007A800A443719DAE430000C4430000DC43A4F0A1
:0607B800F64300D00244EC
:00000001FF
